{
  "contractName": "Auth",
  "abi": [
    {
      "constant": true,
      "inputs": [],
      "name": "name",
      "outputs": [
        {
          "name": "",
          "type": "string"
        }
      ],
      "payable": false,
      "stateMutability": "view",
      "type": "function",
      "signature": "0x06fdde03"
    },
    {
      "constant": true,
      "inputs": [
        {
          "name": "",
          "type": "uint256"
        }
      ],
      "name": "users",
      "outputs": [
        {
          "name": "id",
          "type": "uint256"
        },
        {
          "name": "addUser",
          "type": "address"
        },
        {
          "name": "role",
          "type": "string"
        }
      ],
      "payable": false,
      "stateMutability": "view",
      "type": "function",
      "signature": "0x365b98b2"
    },
    {
      "constant": true,
      "inputs": [],
      "name": "authCount",
      "outputs": [
        {
          "name": "",
          "type": "uint256"
        }
      ],
      "payable": false,
      "stateMutability": "view",
      "type": "function",
      "signature": "0xb8abb1a0"
    },
    {
      "inputs": [],
      "payable": false,
      "stateMutability": "nonpayable",
      "type": "constructor",
      "signature": "constructor"
    },
    {
      "anonymous": false,
      "inputs": [
        {
          "indexed": false,
          "name": "id",
          "type": "uint256"
        },
        {
          "indexed": false,
          "name": "addUser",
          "type": "address"
        },
        {
          "indexed": false,
          "name": "role",
          "type": "string"
        }
      ],
      "name": "createUser",
      "type": "event",
      "signature": "0x99b5bd80093fc1b977a8e875e4ad20a26a2e34c3ef16e310a4e537b5cad806cf"
    },
    {
      "constant": false,
      "inputs": [
        {
          "name": "_role",
          "type": "string"
        }
      ],
      "name": "addUser",
      "outputs": [],
      "payable": false,
      "stateMutability": "nonpayable",
      "type": "function",
      "signature": "0x18b8275a"
    },
    {
      "constant": true,
      "inputs": [
        {
          "name": "add",
          "type": "address"
        }
      ],
      "name": "getRole",
      "outputs": [
        {
          "name": "",
          "type": "string"
        }
      ],
      "payable": false,
      "stateMutability": "view",
      "type": "function",
      "signature": "0x44276733"
    }
  ],
  "bytecode": "0x608060405234801561001057600080fd5b506040805190810160405280600481526020017f41757468000000000000000000000000000000000000000000000000000000008152506001908051906020019061005c929190610062565b50610107565b828054600181600116156101000203166002900490600052602060002090601f016020900481019282601f106100a357805160ff19168380011785556100d1565b828001600101855582156100d1579182015b828111156100d05782518255916020019190600101906100b5565b5b5090506100de91906100e2565b5090565b61010491905b808211156101005760008160009055506001016100e8565b5090565b90565b6108f4806101166000396000f3fe60806040526004361061006d576000357c0100000000000000000000000000000000000000000000000000000000900463ffffffff16806306fdde031461007257806318b8275a14610102578063365b98b2146101ca57806344276733146102b8578063b8abb1a014610382575b600080fd5b34801561007e57600080fd5b506100876103ad565b6040518080602001828103825283818151815260200191508051906020019080838360005b838110156100c75780820151818401526020810190506100ac565b50505050905090810190601f1680156100f45780820380516001836020036101000a031916815260200191505b509250505060405180910390f35b34801561010e57600080fd5b506101c86004803603602081101561012557600080fd5b810190808035906020019064010000000081111561014257600080fd5b82018360208201111561015457600080fd5b8035906020019184600183028401116401000000008311171561017657600080fd5b91908080601f016020809104026020016040519081016040528093929190818152602001838380828437600081840152601f19601f82011690508083019250505050505050919291929050505061044b565b005b3480156101d657600080fd5b50610203600480360360208110156101ed57600080fd5b81019080803590602001909291905050506105f2565b604051808481526020018373ffffffffffffffffffffffffffffffffffffffff1673ffffffffffffffffffffffffffffffffffffffff16815260200180602001828103825283818151815260200191508051906020019080838360005b8381101561027b578082015181840152602081019050610260565b50505050905090810190601f1680156102a85780820380516001836020036101000a031916815260200191505b5094505050505060405180910390f35b3480156102c457600080fd5b50610307600480360360208110156102db57600080fd5b81019080803573ffffffffffffffffffffffffffffffffffffffff1690602001909291905050506106d4565b6040518080602001828103825283818151815260200191508051906020019080838360005b8381101561034757808201518184015260208101905061032c565b50505050905090810190601f1680156103745780820380516001836020036101000a031916815260200191505b509250505060405180910390f35b34801561038e57600080fd5b5061039761081d565b6040518082815260200191505060405180910390f35b60018054600181600116156101000203166002900480601f0160208091040260200160405190810160405280929190818152602001828054600181600116156101000203166002900480156104435780601f1061041857610100808354040283529160200191610443565b820191906000526020600020905b81548152906001019060200180831161042657829003601f168201915b505050505081565b600080815480929190600101919050555060606040519081016040528060005481526020013373ffffffffffffffffffffffffffffffffffffffff1681526020018281525060026000805481526020019081526020016000206000820151816000015560208201518160010160006101000a81548173ffffffffffffffffffffffffffffffffffffffff021916908373ffffffffffffffffffffffffffffffffffffffff1602179055506040820151816002019080519060200190610511929190610823565b509050507f99b5bd80093fc1b977a8e875e4ad20a26a2e34c3ef16e310a4e537b5cad806cf6000543383604051808481526020018373ffffffffffffffffffffffffffffffffffffffff1673ffffffffffffffffffffffffffffffffffffffff16815260200180602001828103825283818151815260200191508051906020019080838360005b838110156105b3578082015181840152602081019050610598565b50505050905090810190601f1680156105e05780820380516001836020036101000a031916815260200191505b5094505050505060405180910390a150565b60026020528060005260406000206000915090508060000154908060010160009054906101000a900473ffffffffffffffffffffffffffffffffffffffff1690806002018054600181600116156101000203166002900480601f0160208091040260200160405190810160405280929190818152602001828054600181600116156101000203166002900480156106ca5780601f1061069f576101008083540402835291602001916106ca565b820191906000526020600020905b8154815290600101906020018083116106ad57829003601f168201915b5050505050905083565b60606000600190505b60005481111515610816578273ffffffffffffffffffffffffffffffffffffffff166002600083815260200190815260200160002060010160009054906101000a900473ffffffffffffffffffffffffffffffffffffffff1673ffffffffffffffffffffffffffffffffffffffff16141561080957600260008281526020019081526020016000206002018054600181600116156101000203166002900480601f0160208091040260200160405190810160405280929190818152602001828054600181600116156101000203166002900480156107fc5780601f106107d1576101008083540402835291602001916107fc565b820191906000526020600020905b8154815290600101906020018083116107df57829003601f168201915b5050505050915050610818565b80806001019150506106dd565b505b919050565b60005481565b828054600181600116156101000203166002900490600052602060002090601f016020900481019282601f1061086457805160ff1916838001178555610892565b82800160010185558215610892579182015b82811115610891578251825591602001919060010190610876565b5b50905061089f91906108a3565b5090565b6108c591905b808211156108c15760008160009055506001016108a9565b5090565b9056fea165627a7a72305820cf598a84197b2245d796043646398b734b2d6f9f7662acb166c254e916928bfd0029",
  "source": "pragma solidity ^0.5.0;\r\ncontract Auth {\r\n    uint public authCount;\r\n    string public name;\r\n    mapping (uint =>User) public users;\r\n    struct User{\r\n        uint id;\r\n        address addUser;\r\n        string role;\r\n    }\r\n    event createUser(\r\n        uint id,\r\n        address payable addUser,\r\n        string role\r\n    );\r\n    constructor () public{\r\n        name = \"Auth\";\r\n    }\r\n    function addUser(string memory _role) public{\r\n        \r\n        authCount++;\r\n        users[authCount] = User(authCount,msg.sender,_role);\r\n        emit createUser(authCount,msg.sender,_role);\r\n    }\r\n      function getRole(address add) public view returns (string memory) {\r\n        for(uint i = 1; i <= authCount; i++){\r\n        if(users[i].addUser == add) {\r\n            return users[i].role;\r\n        }\r\n    }\r\n    }\r\n}",
  "sourcePath": "C:/Users/Admin/Desktop/BE/src/contracts/Auth.sol",
  "compiler": {
    "name": "solc",
    "version": "0.5.0+commit.1d4f565a.Emscripten.clang"
  },
  "schemaVersion": "3.0.1",
  "updatedAt": "2023-03-26T03:43:54.112Z",
  "devdoc": {
    "methods": {}
  },
  "userdoc": {
    "methods": {}
  }
}